:0800000022C0FECFFDCFFCCFB2
:10000800FBCFFACFF9CFDFC2F7CFF6CFF5CFF4CFDA
:10001800F3CFF2CFF1CFF0CFEFCFEECFEDCFECCFE4
:10002800EBCFEACFE9CFE8CFE7CFE6CF1027E80359
:1000380064000A0001000010000110000100F8949B
:10004800EE27F8EDA0E4F4BFA093100180E091E062
:10005800A0E0BFE3ED930197E9F7E0E0ECBBEDBB6F
:10006800EEBBEFBB2E2E3E2E4E2E5E2E6E2E7E2E1D
:100078008E2E9E2EAE2EBE2EEFEFEDBFEFE3EEBF1F
:10008800C0E4DFE32AC20000000000000000000016
:10009800000007C000000000000000000000000091
:1000A80000000000089527FE05C0DAD20000000015
:1000B800000001C0D9D226FE05C0D2D2000000003F
:1000C800000001C0D1D225FE05C0CAD20000000040
:1000D800000001C0C9D224FE05C0C2D20000000041
:1000E800000001C0C1D223FE05C0BAD20000000042
:1000F800000001C0B9D222FE05C0B2D20000000043
:10010800000001C0B1D221FE05C0AAD20000000043
:10011800000001C0A9D220FE05C0A2D20000000044
:10012800000001C0A1D237FE05C09AD2000000002D
:10013800000001C099D236FE05C092D2000000002E
:10014800000001C091D235FE05C08AD2000000002F
:10015800000001C089D234FE05C082D20000000030
:10016800000001C081D233FE05C07AD20000000031
:10017800000001C079D232FE05C072D20000000032
:10018800000001C071D231FE05C06AD20000000033
:10019800000001C069D230FE05C062D20000000034
:1001A800000001C061D257FE05C05AD2000000000D
:1001B800000001C059D256FE05C052D2000000000E
:1001C800000001C051D255FE05C04AD2000000000F
:1001D800000001C049D254FE05C042D20000000010
:1001E800000001C041D253FE05C03AD20000000011
:1001F800000001C039D252FE05C032D20000000012
:10020800000001C031D251FE05C02AD20000000012
:10021800000001C029D250FE05C022D20000000013
:10022800000001C021D2089544247724662411D205
:10023800E093443F1DD2A33718F01AD2AD3808F026
:1002480003C0E1E07E2E13C013D2AE3918F010D2ED
:10025800A23C08F003C0E1E04E2E09C009D2AE3539
:1002680018F006D2A33708F002C0E1E06E2E139909
:100278000FC0E091403FEF5FE093403FA091403FC7
:10028800A83028F0E7E0E093403FE1E09E2E07C069
:10029800E091403FE03019F0E150E093403FA091F9
:1002A800403FA13009F49924442079F0E091413F7E
:1002B800EF5FE093413FA091413FAB3028F0EAE087
:1002C800E093413FE1E0BE2E07C0E091413FE030BE
:1002D80019F0E150E093413FA091413FA13009F46A
:1002E800BB24772079F0E091423FEF5FE093423FF3
:1002F800A091423FA13428F0E0E4E093423FE1E0DE
:100308008E2E07C0E091423FE03019F0E150E093B3
:10031800423FA091423FA13009F48824662079F039
:10032800E091433FEF5FE093433FA091433FAB3FF2
:1003380028F0EAEFE093433FE1E0AE2E07C0E091FA
:10034800433FE03019F0E0E0E093433FE091433F62
:10035800E03009F4AA240895E091453FF0E0309791
:1003680071F4992011F0E1E086D1AA2011F0E4E0BF
:1003780082D109980A9882D12224552471C0E1308B
:10038800A0E0FA0791F4992011F4E0E074D1BB20C1
:1003980011F0E2E070D1882011F0E3E06CD1099A05
:1003A8000A9833246ED155245BC0E230A0E0FA07E6
:1003B800D1F43324222468D108F06FD172D108F423
:1003C80055246FD151F4BB2011F4992009F004C0D1
:1003D800E0E051D162D144C068D1BB2011F00A9A43
:1003E80001C00A983DC0E330A0E0FA07D1F40A9AA8
:1003F80055244AD108F051D154D110F42224332481
:1004080050D171F4882049F4992011F0E1E001C03D
:10041800E0E0E093453F41D123C030D1E4E62E2E01
:100428001FC0E430A0E0FA07C9F4E2E4E093000456
:10043800992029F0E6E4E0930004E1E01CD124D1FE
:1004480008F02BD12ED118F422243324552429D195
:1004580021F4E4E63E2E2E2E5E2E02C0E0E00BD103
:10046800089539D10A2F003021F422D11BE026D17A
:1004780005C01ED110E022D1A1E025D17DC0E091B8
:10048800473FF0E0309719F4CFDEE1E01DC0E130DE
:10049800A0E0FA07C1F460DFA091483F3A1641F4A2
:1004A800A0914A3F2A1621F4A091493F5A1659F0C3
:1004B800A1E0D7DF0AD1A0E0D4DF3092483F2092F4
:1004C8004A3F5092493FE0E0E093473F0895332484
:1004D80022245524FAD0FBD00895F89410E0E8EDD2
:1004E800E4BF10931001E0E0E0931201E0931301E0
:1004F80032D0ACE2B1E0F2D042D0C0D022245524B0
:10050800E4D0E5D0E4DFBDD0E0D0E1D0E2D0DDD06A
:10051800DED0DFD0B6D0D9D0DAD0D9DFAFD0B1D0E5
:10052800D4D0D5D0D6D0AAD0D0D0D1D0D2D0A9D0FE
:10053800A5D0CBD0CCD0CDD0A4D0A0D0C6D0C7D059
:10054800C8D09FD09BD0C1D0C2D0C1DF2CD05BD047
:100558007894FFCFFFCFBFD00FB7F89410E0E8ED45
:10056800E4BF1093600010E0E4BF1093610012E054
:10057800E4BF109378000FBF099119910895E0E046
:10058800E0930404E6E4E0930004E0E0E093100460
:10059800E0931104E0931204E0931304E09316042B
:1005A800E09317040895E0E0E0934701E0934001E9
:1005B800E0915101E170E1F7E1E0E0935201E9E3F4
:1005C800E093500108950A921A92FA926A937A93E4
:1005D8008A939A93AA93BA93EA93FA93EFB7EA9312
:1005E800E0915301E09353014ADFE991EFBFF9919C
:1005F800E991B991A9919991899179916991F99024
:10060800199009901895E6E0E0930006E0E0E09381
:100618000106E4E5E0930206E0E0E0930306E1E08A
:10062800E0931606EEE0E0930506E0E0E0930406AA
:10063800E7E0E0930606E0E0E0930906E0930A06A7
:10064800E0910006E160E0930006E1E0E09308062F
:100658000895E0910B06E170E1F3E091100608952A
:100668000E9A11DD0E9808950E9A1BDD0E9812CD84
:10067800A091443F0895E093453F0895EFEF3E2E43
:100688000895EFEF2E2E0895E091463FEF5FE09337
:10069800463FA091463FAD330895E0E0E093463FE2
:1006A8000895A091463FAE310895EFEF5E2E08956C
:1006B80010E0E8EDE4BF109360000895E8EDE4BFB2
:1006C800109361000895B0E009C0EDDCECCCA6E918
:1006D800FACFFDDEEACF1A930A930895109639F0FF
:1006E800A89588E893E10197F1F71197C9F708955C
:00000001FF
