:0A00000022C0FECFFDCFFCCFFBCFE6
:10000A00FACFF9CF83C3F7CFF6CFF5CFF4CFF3CF3B
:10001A00F2CFF1CFF0CFEFCFEECFEDCFECCFEBCFEA
:10002A00EACFE9CFE8CFE7CFE6CF1027E8036400AD
:10003A000A0001000010000110000100F894EE27E8
:10004A00F8EDA0E4F4BFA093100180E091E0A0E0F5
:10005A00BFE3ED930197E9F7E0E0ECBBEDBBEEBB44
:10006A00EFBB2E2E3E2E4E2E5E2E6E2E7E2E8E2E08
:10007A009E2EAE2EBE2EEFEFEDBFEFE3EEBFC0E435
:10008A00DFE3A8C20000000000000000000000003A
:10009A0007C000000000000000000000000000008F
:1000AA000000089527FE07C00E9AECDF0E980000A4
:1000BA000000000004C00E9AF3DF0E98EADF26FE65
:1000CA0007C00E9ADFDF0E9800000000000004C08F
:1000DA000E9AE6DF0E98DDDF25FE07C00E9AD2DF04
:1000EA000E9800000000000004C00E9AD9DF0E9896
:1000FA00D0DF24FE07C00E9AC5DF0E98000000006C
:10010A00000004C00E9ACCDF0E98C3DF23FE07C09E
:10011A000E9AB8DF0E9800000000000004C00E9A84
:10012A00BFDF0E98B6DF22FE07C00E9AABDF0E982D
:10013A0000000000000004C00E9AB2DF0E98A9DF8A
:10014A0021FE07C00E9A9EDF0E98000000000000F4
:10015A0004C00E9AA5DF0E989CDF20FE07C00E9AF7
:10016A0091DF0E9800000000000004C00E9A98DF8C
:10017A000E988FDF37FE07C00E9A84DF0E980000B4
:10018A000000000004C00E9A8BDF0E9882DF36FE54
:10019A0007C00E9A77DF0E9800000000000004C026
:1001AA000E9A7EDF0E9875DF35FE07C00E9A6ADF5B
:1001BA000E9800000000000004C00E9A71DF0E982D
:1001CA0068DF34FE07C00E9A5DDF0E98000000005B
:1001DA00000004C00E9A64DF0E985BDF33FE07C08E
:1001EA000E9A50DF0E9800000000000004C00E9A1C
:1001FA0057DF0E984EDF32FE07C00E9A43DF0E9885
:10020A0000000000000004C00E9A4ADF0E9841DF89
:10021A0031FE07C00E9A36DF0E980000000000007B
:10022A0004C00E9A3DDF0E9834DF30FE07C00E9AE6
:10023A0029DF0E9800000000000004C00E9A30DF8B
:10024A000E9827DF57FE07C00E9A1CDF0E98000093
:10025A000000000004C00E9A23DF0E981ADF56FE33
:10026A0007C00E9A0FDF0E9800000000000004C0BD
:10027A000E9A16DF0E980DDF55FE07C00E9A02DFA2
:10028A000E9800000000000004C00E9A09DF0E98C4
:10029A0000DF54FE07C00E9AF5DE0E98000000003B
:1002AA00000004C00E9AFCDE0E98F3DE53FE07C06F
:1002BA000E9AE8DE0E9800000000000004C00E9AB4
:1002CA00EFDE0E98E6DE52FE07C00E9ADBDE0E98CF
:1002DA0000000000000004C00E9AE2DE0E98D9DE8B
:1002EA0051FE07C00E9ACEDE0E98000000000000F4
:1002FA0004C00E9AD5DE0E98CCDE50FE07C00E9AC8
:10030A00C1DE0E9800000000000004C00E9AC8DE8C
:10031A000E98BFDE08954424772466243DD2E093E4
:10032A00443FA091443FA33710F0AD3808F003C012
:10033A00E1E07E2E13C0A091443FAE3910F0A23CFA
:10034A0008F003C0E1E04E2E09C0A091443FAE354B
:10035A0010F0A33708F002C0E1E06E2E13990FC027
:10036A00E091403FEF5FE093403FA091403FA134CE
:10037A0028F0E0E4E093403FE1E09E2E07C0E091E0
:10038A00403FE03019F0E150E093403FA091403FF8
:10039A00A13009F49924442079F0E091413FEF5FBC
:1003AA00E093413FA091413FAB3028F0EAE0E0936F
:1003BA00413FE1E0BE2E07C0E091413FE03019F035
:1003CA00E150E093413FA091413FA13009F4BB24A1
:1003DA00772079F0E091423FEF5FE093423FA091AE
:1003EA00423FA13428F0E0E4E093423FE1E08E2E60
:1003FA0007C0E091423FE03019F0E150E093423FFC
:10040A00A091423FA13009F48824662079F0E09156
:10041A00433FEF5FE093433FA091433FAB3F28F058
:10042A00EAEFE093433FE1E0AE2E07C0E091433F9D
:10043A00E03019F0E0E0E093433FE091433FE030E1
:10044A0009F4AA240895E091453FE03089F49920FF
:10045A0019F0E1E0E093453FAA2019F0E4E0E093C7
:10046A00453F09980A98EFEF3E2E2224552498C05A
:10047A00E130B1F4992019F4E0E0E093453FBB2064
:10048A0019F0E2E0E093453F882019F0E3E0E093B9
:10049A00453F099A0A983324EFEF2E2E552480C03F
:1004AA00E23031F5332422240A9AE091463FEF5F85
:1004BA00E093463FA091463FAD3318F0E0E0E09369
:1004CA00463FA091463FAE3108F45524A091463FDD
:1004DA00AE3169F4BB2011F4992009F006C0E0E0BE
:1004EA00E093453FE093463F5BC0EFEF5E2E58C076
:1004FA00E33051F50A9A5524E091463FEF5FE093C5
:10050A00463FA091463FAD3318F0E0E0E093463F06
:10051A00A091463FAE3110F422243324A091463FE5
:10052A00AE3189F4882059F4992011F0E1E001C034
:10053A00E0E0E093453FE0E0E093463F31C0EFEF73
:10054A003E2EE4E62E2E2CC0E43039F5E2E4E093A8
:10055A000004992031F0E6E4E0930004E1E0E0933E
:10056A00453FE091463FEF5FE093463FA091463F0B
:10057A00AD3318F0E0E0E093463FA091463FAE313C
:10058A0018F4222433245524A091463FAE3121F495
:10059A00E4E63E2E2E2E5E2E03C0E0E0E093453FB9
:1005AA000895E091473FE03019F4B5DEE1E006C076
:1005BA00E13019F448DF76DD75DDE0E0E093473F8E
:1005CA0008953324222455246DDD6CDDA6E9B0E0BC
:1005DA00EDD00895F89410E0E8EDE4BF109310010F
:1005EA00E0E0E0931201E09313015CD0ACE2B1E0E9
:1005FA00DDD068D0EFEF3E2E2224552453DD52DDA4
:10060A00A6E9B0E0D3D0DDDFEFEF2E2E4BDD4ADDD9
:10061A00A6E9B0E0CBD0D5DFEFEF5E2E43DD42DDB9
:10062A00A6E9B0E0C3D0CDDFEFEF5E2E2E2E3ADD85
:10063A0039DDA6E9B0E0BAD0C4DFEFEF3E2E2E2EA8
:10064A0031DD30DDA6E9B0E0B1D0BBDFEFEF5E2EE1
:10065A003E2E28DD27DDA6E9B0E0A8D0B2DFEFEF15
:10066A005E2E2E2E3E2E1EDD1DDDA6E9B0E09ED0AA
:10067A00A8DFEFEF5E2E2E2E3E2E14DD13DDA6E947
:10068A00B0E094D09EDFEFEF5E2E2E2E3E2E0ADDD6
:10069A0009DDA6E9B0E08AD094DF28D057D0789453
:1006AA00FFCFFFCF80D00FB7F89410E0E8EDE4BF9A
:1006BA001093600010E0E4BF109361000FBF09912E
:1006CA0019910895E0E0E0930404E6E4E09300045D
:1006DA00E0E0E0931004E0931104E0931204E09345
:1006EA001304E0931604E09317040895E0E0E093FE
:1006FA004701E0934001E0915101E170E1F7E1E047
:10070A00E0935201E9E3E093500108950A921A92A4
:10071A00FA926A937A938A939A93AA93BA93EA93E8
:10072A00FA93EFB7EA93E0915301E093530139DF6B
:10073A00E991EFBFF991E991B991A99199918991BB
:10074A0079916991F990199009901895E6E0E093EA
:10075A000006E0E0E0930106E4E5E0930206E0E04B
:10076A00E0930306E1E0E0931606EEE0E093050667
:10077A00E0E0E0930406E7E0E0930606E0E0E093B9
:10078A000906E0930A06E0910006E160E09300069C
:10079A00E1E0E09308060895E0910B06E170E1F3C9
:1007AA00E091100608951A930A930895109639F065
:1007BA00A89588E893E10197F1F71197C9F7089589
:00000001FF
